{
  "contractName": "Auction",
  "abi": [
    {
      "constant": true,
      "inputs": [],
      "name": "endBlock",
      "outputs": [
        {
          "name": "",
          "type": "uint256"
        }
      ],
      "payable": false,
      "stateMutability": "view",
      "type": "function"
    },
    {
      "constant": true,
      "inputs": [],
      "name": "canceled",
      "outputs": [
        {
          "name": "",
          "type": "bool"
        }
      ],
      "payable": false,
      "stateMutability": "view",
      "type": "function"
    },
    {
      "constant": true,
      "inputs": [],
      "name": "startBlock",
      "outputs": [
        {
          "name": "",
          "type": "uint256"
        }
      ],
      "payable": false,
      "stateMutability": "view",
      "type": "function"
    },
    {
      "constant": true,
      "inputs": [],
      "name": "owner",
      "outputs": [
        {
          "name": "",
          "type": "address"
        }
      ],
      "payable": false,
      "stateMutability": "view",
      "type": "function"
    },
    {
      "constant": true,
      "inputs": [],
      "name": "highestBidder",
      "outputs": [
        {
          "name": "",
          "type": "address"
        }
      ],
      "payable": false,
      "stateMutability": "view",
      "type": "function"
    },
    {
      "constant": true,
      "inputs": [
        {
          "name": "",
          "type": "address"
        }
      ],
      "name": "fundsByBidder",
      "outputs": [
        {
          "name": "",
          "type": "uint256"
        }
      ],
      "payable": false,
      "stateMutability": "view",
      "type": "function"
    },
    {
      "inputs": [
        {
          "name": "_owner",
          "type": "address"
        },
        {
          "name": "_startBlock",
          "type": "uint256"
        },
        {
          "name": "_endBlock",
          "type": "uint256"
        }
      ],
      "payable": false,
      "stateMutability": "nonpayable",
      "type": "constructor"
    },
    {
      "anonymous": false,
      "inputs": [
        {
          "indexed": false,
          "name": "bidder",
          "type": "address"
        },
        {
          "indexed": false,
          "name": "bid",
          "type": "uint256"
        },
        {
          "indexed": false,
          "name": "highestBidder",
          "type": "address"
        },
        {
          "indexed": false,
          "name": "highestBid",
          "type": "uint256"
        }
      ],
      "name": "LogBid",
      "type": "event"
    },
    {
      "anonymous": false,
      "inputs": [
        {
          "indexed": false,
          "name": "withdrawer",
          "type": "address"
        },
        {
          "indexed": false,
          "name": "withdrawalAccount",
          "type": "address"
        },
        {
          "indexed": false,
          "name": "amount",
          "type": "uint256"
        }
      ],
      "name": "LogWithdrawal",
      "type": "event"
    },
    {
      "anonymous": false,
      "inputs": [],
      "name": "LogCanceled",
      "type": "event"
    },
    {
      "constant": true,
      "inputs": [],
      "name": "getHighestBid",
      "outputs": [
        {
          "name": "",
          "type": "uint256"
        }
      ],
      "payable": false,
      "stateMutability": "view",
      "type": "function"
    },
    {
      "constant": false,
      "inputs": [],
      "name": "placeBid",
      "outputs": [
        {
          "name": "success",
          "type": "bool"
        }
      ],
      "payable": true,
      "stateMutability": "payable",
      "type": "function"
    },
    {
      "constant": false,
      "inputs": [],
      "name": "cancelAuction",
      "outputs": [
        {
          "name": "success",
          "type": "bool"
        }
      ],
      "payable": false,
      "stateMutability": "nonpayable",
      "type": "function"
    },
    {
      "constant": false,
      "inputs": [],
      "name": "withdraw",
      "outputs": [
        {
          "name": "success",
          "type": "bool"
        }
      ],
      "payable": false,
      "stateMutability": "nonpayable",
      "type": "function"
    }
  ],
  "bytecode": "0x608060405234801561001057600080fd5b50604051606080610c18833981018060405281019080805190602001909291908051906020019092919080519060200190929190505050808210151561005557600080fd5b4382101561006257600080fd5b60008373ffffffffffffffffffffffffffffffffffffffff16141561008657600080fd5b826000806101000a81548173ffffffffffffffffffffffffffffffffffffffff021916908373ffffffffffffffffffffffffffffffffffffffff1602179055508160018190555080600281905550505050610b32806100e66000396000f3006080604052600436106100a4576000357c0100000000000000000000000000000000000000000000000000000000900463ffffffff168063083c6323146100a95780633ccfd60b146100d45780633f9942ff1461010357806348cd4cb1146101325780634979440a1461015d5780638da5cb5b146101885780638fa8b790146101df57806391f901571461020e578063ce10cf8014610265578063ecfc7ecc146102bc575b600080fd5b3480156100b557600080fd5b506100be6102de565b6040518082815260200191505060405180910390f35b3480156100e057600080fd5b506100e96102e4565b604051808215151515815260200191505060405180910390f35b34801561010f57600080fd5b5061011861063c565b604051808215151515815260200191505060405180910390f35b34801561013e57600080fd5b5061014761064f565b6040518082815260200191505060405180910390f35b34801561016957600080fd5b50610172610655565b6040518082815260200191505060405180910390f35b34801561019457600080fd5b5061019d6106be565b604051808273ffffffffffffffffffffffffffffffffffffffff1673ffffffffffffffffffffffffffffffffffffffff16815260200191505060405180910390f35b3480156101eb57600080fd5b506101f46106e3565b604051808215151515815260200191505060405180910390f35b34801561021a57600080fd5b506102236107b7565b604051808273ffffffffffffffffffffffffffffffffffffffff1673ffffffffffffffffffffffffffffffffffffffff16815260200191505060405180910390f35b34801561027157600080fd5b506102a6600480360381019080803573ffffffffffffffffffffffffffffffffffffffff1690602001909291905050506107dd565b6040518082815260200191505060405180910390f35b6102c46107f5565b604051808215151515815260200191505060405180910390f35b60025481565b6000806000600254431080156103075750600360009054906101000a900460ff16155b1561031157600080fd5b600360009054906101000a900460ff161561037057339150600460008373ffffffffffffffffffffffffffffffffffffffff1673ffffffffffffffffffffffffffffffffffffffff1681526020019081526020016000205490506104f2565b6000809054906101000a900473ffffffffffffffffffffffffffffffffffffffff1673ffffffffffffffffffffffffffffffffffffffff163373ffffffffffffffffffffffffffffffffffffffff16141561045357600360019054906101000a900473ffffffffffffffffffffffffffffffffffffffff16915060046000600360019054906101000a900473ffffffffffffffffffffffffffffffffffffffff1673ffffffffffffffffffffffffffffffffffffffff1673ffffffffffffffffffffffffffffffffffffffff1681526020019081526020016000205490506104f1565b600360019054906101000a900473ffffffffffffffffffffffffffffffffffffffff1673ffffffffffffffffffffffffffffffffffffffff163373ffffffffffffffffffffffffffffffffffffffff161415156104f057339150600460008373ffffffffffffffffffffffffffffffffffffffff1673ffffffffffffffffffffffffffffffffffffffff1681526020019081526020016000205490505b5b5b600081141561050057600080fd5b80600460008473ffffffffffffffffffffffffffffffffffffffff1673ffffffffffffffffffffffffffffffffffffffff168152602001908152602001600020600082825403925050819055503373ffffffffffffffffffffffffffffffffffffffff166108fc829081150290604051600060405180830381858888f19350505050158015610593573d6000803e3d6000fd5b507f0ec497a8ae5b1ba29c60470ef651def995fac3deebbdcc56c47a4e5f51a4c2bd338383604051808473ffffffffffffffffffffffffffffffffffffffff1673ffffffffffffffffffffffffffffffffffffffff1681526020018373ffffffffffffffffffffffffffffffffffffffff1673ffffffffffffffffffffffffffffffffffffffff168152602001828152602001935050505060405180910390a160019250505090565b600360009054906101000a900460ff1681565b60015481565b600060046000600360019054906101000a900473ffffffffffffffffffffffffffffffffffffffff1673ffffffffffffffffffffffffffffffffffffffff1673ffffffffffffffffffffffffffffffffffffffff16815260200190815260200160002054905090565b6000809054906101000a900473ffffffffffffffffffffffffffffffffffffffff1681565b60008060009054906101000a900473ffffffffffffffffffffffffffffffffffffffff1673ffffffffffffffffffffffffffffffffffffffff163373ffffffffffffffffffffffffffffffffffffffff1614151561074057600080fd5b60025443111561074f57600080fd5b600360009054906101000a900460ff161561076957600080fd5b6001600360006101000a81548160ff0219169083151502179055507f462b6ca7f632601af1295aeb320851f50e8e630a309173f23535845ea4bfb3b960405160405180910390a16001905090565b600360019054906101000a900473ffffffffffffffffffffffffffffffffffffffff1681565b60046020528060005260406000206000915090505481565b600080600060015443101561080957600080fd5b60025443111561081857600080fd5b600360009054906101000a900460ff161561083257600080fd5b6000809054906101000a900473ffffffffffffffffffffffffffffffffffffffff1673ffffffffffffffffffffffffffffffffffffffff163373ffffffffffffffffffffffffffffffffffffffff16141561088c57600080fd5b600034141561089a57600080fd5b34600460003373ffffffffffffffffffffffffffffffffffffffff1673ffffffffffffffffffffffffffffffffffffffff1681526020019081526020016000205401915060046000600360019054906101000a900473ffffffffffffffffffffffffffffffffffffffff1673ffffffffffffffffffffffffffffffffffffffff1673ffffffffffffffffffffffffffffffffffffffff16815260200190815260200160002054905081600460003373ffffffffffffffffffffffffffffffffffffffff1673ffffffffffffffffffffffffffffffffffffffff1681526020019081526020016000208190555080821115610a2f57600360019054906101000a900473ffffffffffffffffffffffffffffffffffffffff1673ffffffffffffffffffffffffffffffffffffffff163373ffffffffffffffffffffffffffffffffffffffff16141515610a275733600360016101000a81548173ffffffffffffffffffffffffffffffffffffffff021916908373ffffffffffffffffffffffffffffffffffffffff1602179055505b819050610a34565b600080fd5b7f49e60d8d833f1250f6ede154509b047fe77c1eae57655e8176675b5f91af7b0a3383600360019054906101000a900473ffffffffffffffffffffffffffffffffffffffff1684604051808573ffffffffffffffffffffffffffffffffffffffff1673ffffffffffffffffffffffffffffffffffffffff1681526020018481526020018373ffffffffffffffffffffffffffffffffffffffff1673ffffffffffffffffffffffffffffffffffffffff16815260200182815260200194505050505060405180910390a1600192505050905600a165627a7a72305820826c844c98d7f7eb0cf97d4302dcdead79eb173fecfbe86d27f882f335edd9bd0029",
  "source": "pragma solidity ^0.4.21;\n\ncontract Auction {\n    \n    address public owner;\n    uint public startBlock;\n    uint public endBlock;\n\n    bool public canceled;\n    address public highestBidder;\n    mapping(address => uint256) public fundsByBidder;\n\n    event LogBid(address bidder, uint bid, address highestBidder, uint highestBid);\n    event LogWithdrawal(address withdrawer, address withdrawalAccount, uint amount);\n    event LogCanceled();\n\n    constructor(address _owner, uint _startBlock, uint _endBlock) public {\n    \n        if (_startBlock >= _endBlock) revert();\n        if (_startBlock < block.number) revert();\n        if (_owner == 0) revert();\n\n        owner = _owner;\n        startBlock = _startBlock;\n        endBlock = _endBlock;\n    }\n\n    function getHighestBid() public view returns (uint)\n    {\n        return fundsByBidder[highestBidder];\n    }\n\n    function placeBid() public payable onlyAfterStart\n    onlyBeforeEnd onlyNotCanceled onlyNotOwner returns (bool success)\n    {\n        if (msg.value == 0) revert();\n\n        uint newBid = fundsByBidder[msg.sender] + msg.value;\n        uint highestBid = fundsByBidder[highestBidder];\n\n        fundsByBidder[msg.sender] = newBid;\n\n        if (newBid > highestBid) {\n            if (msg.sender != highestBidder) {\n                highestBidder = msg.sender;\n            }\n            highestBid = newBid;\n        } else {\n            revert();\n        }\n\n        emit LogBid(msg.sender, newBid, highestBidder, highestBid);\n        return true;\n    }\n\n    function cancelAuction() public onlyOwner\n    onlyBeforeEnd onlyNotCanceled returns (bool success)\n    {\n        canceled = true;\n        emit LogCanceled();\n        return true;\n    }\n\n    function withdraw() public onlyEndedOrCanceled returns (bool success)\n    {\n        address withdrawalAccount;\n        uint withdrawalAmount;\n\n        if (canceled) {\n            withdrawalAccount = msg.sender;\n            withdrawalAmount = fundsByBidder[withdrawalAccount];\n\n        } else {\n            if (msg.sender == owner) {\n                withdrawalAccount = highestBidder;\n                withdrawalAmount = fundsByBidder[highestBidder];\n\n            } else if (msg.sender != highestBidder) {\n                withdrawalAccount = msg.sender;\n                withdrawalAmount = fundsByBidder[withdrawalAccount];\n            } \n        }\n\n        if (withdrawalAmount == 0) revert();\n\n        fundsByBidder[withdrawalAccount] -= withdrawalAmount;\n\n        msg.sender.transfer(withdrawalAmount);\n\n        emit LogWithdrawal(msg.sender, withdrawalAccount, withdrawalAmount);\n\n        return true;\n    }\n\n    modifier onlyOwner {\n        if (msg.sender != owner) revert();\n        _;\n    }\n\n    modifier onlyNotOwner {\n        if (msg.sender == owner) revert();\n        _;\n    }\n\n    modifier onlyAfterStart {\n        if (block.number < startBlock) revert();\n        _;\n    }\n\n    modifier onlyBeforeEnd {\n        if (block.number > endBlock) revert();\n        _;\n    }\n\n    modifier onlyNotCanceled {\n        if (canceled) revert();\n        _;\n    }\n\n    modifier onlyEndedOrCanceled {\n        if (block.number < endBlock && !canceled) revert();\n        _;\n    }\n}",
  "sourcePath": "/Users/kevinlaeremans/Desktop/auction/contracts/Auction.sol",
  "compiler": {
    "name": "solc",
    "version": "0.4.24+commit.e67f0147.Emscripten.clang"
  },
  "schemaVersion": "2.0.0",
  "updatedAt": "2018-06-14T23:35:03.851Z"
}